:020000040800F2
:10000000A022002099010008D72A00089B27000899
:10001000D52A0008510A0008E13400080000000059
:1000200000000000000000000000000001010008C6
:10003000AD0B00080000000045010008152F000866
:10004000B3010008B3010008B3010008B3010008C0
:10005000B3010008B3010008B3010008B3010008B0
:10006000B3010008B3010008B3010008350B000814
:10007000B3010008B3010008B3010008410B0008F8
:10008000B3010008B3010008B3010008B301000880
:10009000B3010008B3010008B3010008B301000870
:1000A000B3010008BD2F0008B3010008B301000828
:1000B000B3010008B3010008B3010008B301000850
:1000C000B3010008B3010008B3010008B301000840
:1000D000B3010008D5340008B3010008B3010008DB
:1000E000B3010008B3010008B3010008DFF80CD029
:1000F00000F0D8FB00480047553E0008A022002031
:10010000224B19680868B0E8F00F80F30988BFF344
:100110006F8F4FF0000080F311884EF00D0E704786
:100120000000000006480068006880F3088862B696
:1001300061B6BFF34F8FBFF36F8F00DF00BF00BF0B
:1001400008ED00E0EFF30980BFF36F8F0F4B1A68E3
:1001500020E9F00F106008B54FF0500080F31188CF
:10016000BFF34F8FBFF36F8F04F082FB4FF000009F
:1001700080F31188BDE8084019680868B0E8F00FFE
:1001800080F30988BFF36F8F704700BF1400002011
:10019000EFF3058070470000064880470648004797
:1001A000FEE7FEE7FEE7FEE7FEE7FEE7FEE7FEE727
:1001B000FEE7FEE7B92F0008ED000008202A04DB67
:1001C000203A21FA02F00021704721FA02F3D040D0
:1001D000C2F12002914008431946704740EA0103EA
:1001E0009B0703D009E008C9121F08C0042AFAD2ED
:1001F00003E011F8013B00F8013B521EF9D27047B1
:10020000D2B201E000F8012B491EFBD27047002258
:10021000F6E710B513460A4604461946FFF7F0FF05
:10022000204610BD10B5002200E0521C835C8C5C9F
:10023000A34201D1002BF8D1D8B2E1B2401A10BDCF
:1002400080EA010210B502F00043400022D04A00CB
:100250001FD0010E01EB1261C0F35600C2F356022B
:1002600040F4000042F40002A0FB022000047F39A9
:10027000140400D0401C50EA124001D44000491E32
:10028000C2B20C0604EBD010401C4008802A02D0F9
:1002900003E0002010BD20F00100002900DA00205A
:1002A000184310BD2DE9FE4F81EA030404F0004419
:1002B00021F0004100944FF0000B23F0004350EA7E
:1002C00001045ED052EA03045BD0C3F30A54C1F3C5
:1002D0000A552C44A4F2F3340194A0FB0254C1F358
:1002E000130141F48011C3F3130343F4801301FBA2
:1002F000024400FB034E840A970A44EA815447EA09
:100300008357A4FB076802958D0A05FB07854FEA12
:10031000932C04FB0C542705029D4FEA065847EA2C
:100320001637B5EB08056EEB070C870E920E47EA01
:10033000811742EA8312A7FB0201B6EB0B0164EBC3
:1003400000042B0D43EA0C335E1844EB1C50DA46D4
:100350005146E7FB0201C5F313044FEA0B3343EAAE
:1003600014534FEA0432019C43EA0603A4F10C043F
:100370000294009CCDE900B400F0FFF803B0BDE8A2
:10038000F08F00200146F9E770B521F000430343E8
:100390000CD0C1F30A550024D5EB040564EB04032B
:1003A000D617AD1AB34102DB0020014670BD2018FC
:1003B00041EB025170BD0EB540F233410291002174
:1003C000CDE900110A460B4600F0D7F803B000BD96
:1003D00000F0004220F00040C10DC0F3160040F4D0
:1003E00000007F2901DA00207047962903DCC1F163
:1003F0009601C84001E096398840002AF4D0404276
:10040000704700F0004230F000400AD0C10D01F505
:100410006071C0F3160042EA0151C208400711435F
:10042000704700200146704701F0004330B421F0CE
:10043000004150EA010206D00A0DA2F56072C1F334
:100440001301002A02DC30BC00207047440F44EA4C
:10045000C104C100E01830BC00EBC25000F047B846
:1004600030B50B46014600202022012409E021FA84
:1004700002F59D4205D303FA02F5491B04FA02F581
:100480002844151EA2F10102F1DC30BD2DE9F05F18
:100490000546002092469B468846064681464024F3
:1004A0001BE02846414647462246FFF787FE534653
:1004B0005A46C01A914110D311461846224600F000
:1004C00003FA2D1A67EB01084F462246012000214E
:1004D00000F0FAF917EB00094E41201EA4F10104C7
:1004E000DFDC484631462A464346BDE8F09F0029F6
:1004F000A8BF7047401C490008BF20F001007047AA
:1005000010B4B0FA80FC00FA0CF050EA010404BF09
:1005100010BC704749B1CCF1200421FA04F411FA5F
:100520000CF118BF012121430843A3EB0C01CB1DA3
:100530004FEA00614FEA102042BF002010BC704714
:1005400000EBC35010440029A4BF10BC7047401CEE
:10055000490008BF20F0010010BC704710B5141E00
:1005600073F1000408DA401C41F1000192185B416C
:100570001A4301D120F0010010BD2DE9F04D924643
:100580009B4611B1B1FA81F202E0B0FA80F220325A
:10059000904600F099F904460F4640EA0A0041EA05
:1005A0000B0153465A46084313D0114653EA010043
:1005B00019D0C8F140025046FFF700FE05460E462E
:1005C00050465946424600F07FF9084305D00120C5
:1005D00004E020463946BDE8F08D0020054346EA98
:1005E000E0762C4337430A986305E40AA0EB080041
:1005F0000022FD0A44EA47540A3002D50020014691
:10060000E9E7010510196941DDE90845001969416B
:10061000BDE8F04DA2E72DE9FE4F804681EA0300D8
:10062000C00F0C46009021F0004123F00045B8EBCC
:100630000200A94105D24046214690461C460B4681
:10064000024623F00040104347D0270DC7F30A00AD
:10065000C3F30A510290401A019040286BDAC3F3A9
:10066000130040F4801B0098924620B10023D2EB87
:10067000030A63EB0B0B01985946C0F14002504648
:1006800000F022F906460D4650465946019A00F000
:100690002AF910EB08006141002487EA115284EA2C
:1006A000E7731A4340D0009A62B3019A012A4FEAD5
:1006B000075215DC001B61EB02014FF0004202EA19
:1006C0000752CDE90042001C41F5801132462B460D
:1006D000FFF753FF03B0BDE8F08F40462146F9E72E
:1006E000001B61EB0201001C41F5801300185B4107
:1006F0002018A2F5001747EB030140EAD570B619A0
:100700006D4111E06D084FEA360645EAC0754FEAC3
:100710000752001B61EB0201001C41F580114908E2
:100720004FEA30000019514132462B4603B0BDE874
:10073000F04FFFF713BF0098012240000023D0EBD9
:10074000020263EBE073009821464FEAE074B8EBD5
:10075000000061EB0401E9E783F000435BE781F00F
:10076000004158E72DE9F04D81EA030404F0004B05
:1007700021F0004514464FF0000A23F0004150EAF2
:10078000050220D054EA01021DD0C5F30A570246E3
:10079000C5F31303C1F31300C1F30A5640F48015E7
:1007A00043F48013A7EB0608101BD64608F2FD3869
:1007B00073EB050002D308F1010801E092185B41D8
:1007C000B8F1000F03DA00200146BDE8F08D0020EB
:1007D0004FF48011064684460EE0171B73EB0507A5
:1007E00005D3121B63EB050306434CEA010C4908D1
:1007F0004FEA300092185B4150EA0107EDD152EA0E
:10080000030012D082EA040083EA0501084305D000
:10081000101BAB4106D20122002306E000224FF05C
:10082000004302E06FF0010253101AEB06004CEB9C
:10083000085110EB0A0041EB0B01BDE8F04DFFF74A
:100840008DBEC1F30A52C1F3130140F2FF3341F4EC
:1008500080119A4202DA00200146704740F2334389
:100860009A42A2F2334202DC5242FFF7A7BC00F0E8
:100870002BB8000030B5041E71F1000404DB4FF00A
:100880000044404264EB0101141E73F1000405DBD7
:100890001C464FF00043524263EB0403994208BFE9
:1008A000904230BD064C074D06E0E06840F0010381
:1008B00094E8070098471034AC42F6D3FFF71AFCCF
:1008C000AC590008CC590008202A04DB203A00FA71
:1008D00002F1002070479140C2F1200320FA03F397
:1008E000194390407047202A06DBCB17203A41FA83
:1008F00002F043EAE07306E041FA02F3D040C2F1AD
:1009000020029140084319467047000070B5044624
:1009100000688168C943C90717D1816821F00101C6
:10092000816000F095FE05460AE000BF00F090FEF1
:10093000401B022804D920688068C043C00706D045
:1009400020688068C043C007F0D0002070BDA06A56
:1009500040F01000A062E06A40F00100E062012077
:1009600070BD10B50146406A826A12F0500F05D082
:10097000006A026BBDE8104008461047816A41F4E6
:100980000071816201688968C1F3424107290CD175
:10099000017B51B9816A21F480718162816AC90445
:1009A00003D4816A41F00101816200F05BFA10BD5D
:1009B00010B5406A816A41F040018162C16A41F02C
:1009C0000401C16200F06DFA10BD10B5406A00F07C
:1009D00067FA10BDF8B500260446009600688168E5
:1009E000C943C9072DD0816841F0010181601648D3
:1009F00016490068B0FBF1F000E0401E00900028AE
:100A0000FBD100F025FE054616E000BF00F020FEF9
:100A1000401B022810D920688068C043C0070BD053
:100A2000A06A40F01000A062E06A40F00100E062BD
:100A300084F824600120F8BD20688068C043C007A6
:100A4000E4D10020F8BD00001000002040420F005B
:100A5000FEE700004FF0FF34204D2146286B04F0E4
:100A600093F90128F9D11EA11F48FFF7DBFBC0B1A4
:100A70001EA11D48FFF7D6FBD0B11EA11A48FFF7F3
:100A8000D1FBF0B11DA11848FFF7CCFBE8B11DA1C7
:100A90001548FFF7C7FBD8B113491CA002F022FD8F
:100AA000DBE7FF221146104602F0C0F91BA005E06B
:100AB00000221146104602F0B9F91BA002F012FD07
:100AC000CBE700221146FF2005E00022FF2101E0D4
:100AD000FF220021002002F0A9F9BEE77C000020DF
:100AE0004C45445F4F4E00009C1D00204C45445F28
:100AF0004F4646005247425F520000005247425F55
:100B0000470000005247425F42000000556E6B6E86
:100B10006F776E3A2025730D0A0000004C45442083
:100B20004F4E0D0A000000004C4544204F46460D34
:100B30000A000000014800F081BB00004C030020C7
:100B4000014800F07BBB00002004002030B590F885
:100B500040500124AC40C56B6C600468636043681E
:100B6000102B036803D099600068C26030BD9A60A2
:100B70000068C16030BD00001CB50B4C4FF0FF3564
:100B80002A466946606B04F063F80128F8D1002317
:100B90001A466946A06B03F05DFF00231A466946BA
:100BA000E06B03F057FFEBE77C000020704772B664
:100BB000FEE700007CB501F0B5FF012003F0DAFE8E
:100BC0003A4C6062012003F0D5FEA06203220021AE
:100BD000012003F0DAFEE06203220021012003F08D
:100BE000D4FE2063002208210A2003F0CEFE6063B9
:100BF00000220821052003F0C8FEA063002208217E
:100C0000052003F0C2FEE063201D0225CDE900505F
:100C1000EC010023224626A1274804F0ABF9012865
:100C200002D126A002F05EFC204803260830CDE960
:100C300000600023224627A1294804F09BF90128DF
:100C400002D128A002F04EFC184800230C30CDE958
:100C5000005022462AA12C4804F08CF9012802D128
:100C60002AA002F03FFC114800231030CDE90060BB
:100C700022462BA12C4804F07DF9012802D12BA09B
:100C800002F030FC094904201431CDE900010023B1
:100C900080222BA12C4804F06DF9012804D1BDE875
:100CA0007C402AA002F01EBC7CBD00007C0000201D
:100CB00053656E736F720000452E000853656E73A6
:100CC0006F725F5441534B20437265617465640DCC
:100CD0000A0000004461746150726F6300000000FC
:100CE000790B00084461746150726F636573735FC0
:100CF0005461736B20437265617465640D0A000072
:100D00004F4C454400000000D12C00084F4C454496
:100D10005F5461736B20437265617465640D0A00F2
:100D20005541525400000000B1330008554152545F
:100D30005F5461736B20437265617465640D0A00D2
:100D4000436D6452756E0000550A0008436D64528D
:100D5000756E6E696E675F5461736B204372656177
:100D60007465640D0A000000F8B50024009490F842
:100D700024202546012A12D0012280F824204A6826
:100D80001F23072A0DD20668776B521E02EB8202E0
:100D900093409F430B6893401F43776319E0022001
:100DA000F8BD06680D2A0AD2376BD21F02EB820209
:100DB00093409F430B6893401F43376309E0F76AF2
:100DC0000D3A02EB820293409F430B6893401F430E
:100DD000F7620A68072306680A2A0AD3F7680A3AFC
:100DE00002EB420293409F438B6893401F43F7609E
:100DF00008E0376902EB420293409F438B689340BF
:100E00001F4337610A68102A01D0112A20D1124BE2
:100E100002689A4217D193681B0219D4936843F46D
:100E2000000393600968102912D10C490C4A096823
:100E3000B1FBF2F101EB8101490000E0491E009194
:100E40000029FBD104E0816A41F020018162012484
:100E500080F824502046F8BD0024014010000020F6
:100E600040420F0008B5002100910A4988420FD185
:100E700009486946C06A03F09DFE0098002807D023
:100E800006494FF080500860BFF34F8FBFF36F8F5C
:100E900008BD00001C0300207C00002004ED00E0E1
:100EA000704770472DE9F0414FF0000704003D46C0
:100EB0007ED0A06A002628B9E66284F82460204625
:100EC00000F07EF82046FFF721FDA16AC90600D494
:100ED00020B1A06A40F01000A06269E0A16A21F48C
:100EE000885141F00201A1626268E169237B0A43F3
:100EF00047EA43010A43A1684FF48077B94209D019
:100F0000012907D05FF0000194F814C0BCF1010F73
:100F100002D00AE03946F7E7F3B1A36A43F02003B1
:100F2000A362E36A43F00103E3622368D3F804C0D9
:100F30002CF4694C4CEA010CC3F804C021688B689E
:100F4000DFF870C003EA0C0313438B60A168B94259
:100F50000BD0012909D00CE0DFF85CC0A3690CEBD1
:100F600043330B4343F40061DFE7218A0D05A5F508
:100F700080152168CB6A23F470032B43CB62216870
:100F800089680E4B1940914208D1E662A16A21F0AE
:100F9000020141F00101A162BDE8F081A06A20F0E8
:100FA000020040F01000A062E06A40F00100E06240
:100FB0000120F1E7FDF7E1FF00E0FFFFFE0E1FFF5C
:100FC00070B586B0002506460095019502950395FB
:100FD00000681A4988422ED11949886940F4007086
:100FE0008861886900F400700490886940F004000A
:100FF00088618869694600F0040004900720009029
:10100000032001900F4800F029FA104C0E48C4E963
:1010100000058020C4E9025040002061800060612A
:101020002020C4E90605204600F0B2F908B1FFF718
:10103000BEFD3462666206B070BD0000002401404F
:101040000010024000080140080002404C0300204C
:101050002DE9F047894604463B4900683B4F0E1D89
:101060009046884201D0B84207D1306810F4702F02
:1010700003D001252846BDE8F08794F82400012814
:101080000CD0012084F824002046FFF7A3FC0500C3
:101090004FF0000004D084F82400EBE70220EAE7D8
:1010A000A16A40F60162914341F48071A162216816
:1010B000B94218D1326812F4702F14D0A16A41F4E9
:1010C0008011A1623168490505D5A16A21F400515A
:1010D00041F48051A162A16AC9040AD5E16A21F0F4
:1010E0000601E16206E0A26A22F48012A262496867
:1010F000E9E7E06284F82400216A15488862216AE1
:101100001448C862216A1448086321686FF002001D
:1011100008602068816841F48071816021684346DD
:101120004A464C31206A00F061F920688168C1F3B9
:1011300042410729816803D041F48011816099E719
:1011400041F4A001FAE7000000240140002801401A
:1011500063090008CB090008B109000810B590F830
:1011600021100022022905D00421816380F820206B
:10117000012010BD01680B6823F00E030B600168AD
:101180000B6823F001030B6090F84030C46B012121
:1011900001FA03F3636080F8211080F820201046E4
:1011A00010BD000010B590F821100024022903D0D2
:1011B0000421816301243DE001680A6822F00E02E7
:1011C0000A6001680A6822F001020A601A4A01688E
:1011D000914201D1012121E0174A1432914201D1FB
:1011E00010211BE0144A2832914201D1891515E0E3
:1011F000114A3C32914201D189140FE00E4A50321B
:10120000914202D14FF4803108E00B4A643291429E
:1012100002D14FF4801101E04FF08071064A083A84
:101220005160012180F82110002180F82010416BCD
:1012300001B18847204610BD080002402DE9F05F4B
:10124000C16B0C6801680B68D0F840C0042202FA38
:101250000CF2494DDFF824A1494E4A4FDFF828B17E
:10126000DFF828E122422CD05A072AD50A689206D4
:1012700003D40A6822F004020A600168A94201D17D
:10128000042219E0514501D1402215E0B14202D1BA
:101290004FF4806210E0B94202D14FF480420BE07B
:1012A000594502D14FF4802206E0714502D14FF436
:1012B000800201E04FF080622F4908394A60C16A1C
:1012C0003BE04FF0020808FA0CF818EA040F4FF060
:1012D00000094FF0010235D05FEA837832D50B6800
:1012E0009B0605D40B6823F00A030B6080F82120CD
:1012F0000168A94201D1022219E0514501D1202201
:1013000015E0B14202D14FF4007210E0B94202D1AF
:101310004FF400520BE0594502D14FF4003206E081
:10132000714502D14FF4001201E04FF000721249F2
:1013300008394A6080F82090816A00291AD0BDE8F7
:10134000F05F0847082505FA0CF5254212D01B0767
:1013500010D50B6823F00E030B6090F84010C36BA0
:1013600002FA01F15960826380F8212080F8209010
:10137000016BE2E7BDE8F09F080002401C0002405C
:101380003000024044000240580002406C0002401D
:1013900030B528B308C8134914221944B1FBF2F13F
:1013A0008900C16310498163022141771A6843F6BD
:1013B000F0718A43D0E900142143D0E902452C435F
:1013C0002143046921434469214384692143114332
:1013D000196000214163012242770177084630BD40
:1013E000012030BDF8FFFDBF0000024070B504468B
:1013F00090F82000002501280CD0012084F820005E
:1014000094F821600020012E06D084F820000225E7
:10141000284670BD022070BD022684F82160A063BA
:101420002068066826F0010606602046FFF78EFB5E
:10143000E06A00282068016802D041F00E0106E051
:1014400021F0040101602068016841F00A01016097
:101450002068016841F001010160D9E72DE9F84FEA
:10146000DFF8B8910024A9F1040B23460F2709F1F6
:10147000040AABF1040EC9E00125A5402A40AA42A6
:101480007DD1674ED1F804C0ACEB0608B44532D02C
:1014900014DCBCF1030F3AD009DCBCF1000F2AD0F8
:1014A000BCF1010F1CD0BCF1020F31D11DE0BCF129
:1014B000110F17D0BCF1120F2AD119E0B8F5881F0F
:1014C00019D006DCB8F5803F15D0B8F5801F1FD1C4
:1014D00011E0B8F5001F0ED0B8F5041F18D10AE0CE
:1014E000CB6815E0CB681B1D12E0CB6808330FE01A
:1014F000CB680C330CE08B682BB1012B4FF0080349
:1015000003D0456104E0042302E0056100E000230C
:10151000FF2A01D8064601E000F104064FEA8405DF
:1015200001D9A5F12005D6F8008007FA05FC28EAC4
:101530000C0803FA05F548EA0508C6F800804D686E
:10154000ED0062D5374DAE6946F00106AE61AD697A
:1015500024F0030605F001050095334D06EB050C5C
:10156000DCF80850A607360F07FA06F825EA080542
:10157000DFF8B880404503D14FF0000817E044E0A1
:10158000DFF8AC80404502D14FF001080FE0DFF8F2
:10159000A480404502D14FF0020808E0DFF89880AF
:1015A000404502D14FF0030801E04FF0040808FA6B
:1015B00006F848EA0508CCF808804D68D9F80060BC
:1015C000ED024D4601D5164300E096432E604D686E
:1015D000DAF80060AD02554601D5164300E09643A7
:1015E0002E604D68DBF80060AD035D4601D5164303
:1015F00000E096432E604D68DEF80060ED0375460E
:1016000001D5164300E096432E60641C0D682A46FF
:10161000E5407FF431AFBDE8F88F000008040140D9
:1016200000001110001002400000014000080140BD
:10163000000C014000100140001401408068084087
:1016400000D0012070470AB1016170470904FBE72F
:10165000014880687047000004000020024881684B
:10166000027811448160704704000020074810B5DB
:10167000016841F010010160032000F0A1F80F2083
:1016800000F006F800F04AF8002010BD00200240EB
:1016900030B505461C4887B0816941F4006181611D
:1016A000806906A900F40060009001A800F0A6F986
:1016B00000F0D4F91549164AB0FBF1F11548491E5E
:1016C0000260416040F2E7320021C0E903218160FD
:1016D000816100F0BFFB040012D10E4800F010FC45
:1016E00004000DD1192000F03DF8102D07D2002282
:1016F0002946192000F044F80748056000E001245D
:1017000007B0204630BD00000010024040420F00EC
:10171000002C014064040020080000200F4808B598
:10172000816941F001018161816901F0010100914C
:10173000C16941F08051C161C069002200F0805050
:1017400000900F21901E00F01BF80548416821F021
:10175000E06141F00071416008BD000000100240EE
:1017600000000140002809DB00F01F020121914028
:101770004009800000F1E020C0F80011704700002F
:10178000F0B40E4B1B680C46C3F30223C3F10705EC
:10179000042D00D90425191D072901D2002300E0DA
:1017A000DB1E012606FA05F1491E214099409E40A4
:1017B000761E16403143F0BC01F0BCBE0CED00E0DB
:1017C000064900F0070208684FF6FF03184040EA98
:1017D0000220034A10430860704700000CED00E04F
:1017E0000000FA052DE9F84305460078354CC0079E
:1017F00054D0E0690026C00008D4E06940F0805071
:10180000E061E069012600F0805000902E480168F8
:10181000C90512D40168804641F480710160FFF768
:1018200017FF074605E000BFFFF712FFC01B642843
:1018300023D8D8F80000C005F6D5206A10F440700F
:1018400021D0A98801F4407181421CD0206A1F492F
:10185000012220F440700A6000220A602062C00762
:1018600011D0FFF7F5FE074641F2883808E000BFC7
:10187000FFF7EEFEC11B414502D90320BDE8F88306
:10188000206A8007F4D5206A696820F44070084314
:1018900020621EB1E06920F08050E0612878800766
:1018A00005D56068A96820F4404008436060287846
:1018B000C00605D56068E96820F4800008436060D0
:1018C0000020DBE70010024000700040400442426C
:1018D0002DE9F0470F46050061D0434E306800F017
:1018E0000700B84209D2306820F007003843306062
:1018F000306800F00700B84251D128683B4C81079E
:1019000012D5400703D5606840F4E0606060287835
:10191000000703D5606840F4605060606068A968A3
:1019200020F0F000084360602878C00728D068687D
:10193000012810D02168022810D0890700292EDA4A
:10194000616821F0030101436160FFF781FE804679
:1019500041F288390DE021688903EFE78901EDE75D
:10196000FFF776FEA0EB0801494502D90320BDE848
:10197000F0876068696800F00C00B0EB810FEFD170
:10198000306800F00700B8420BD9306820F007003B
:1019900038433060306800F00700B84201D00120C1
:1019A000E5E72878400705D56068E96820F4E0603D
:1019B000084360602878000706D56068296920F42C
:1019C000605040EAC100606000F058F86168084A61
:1019D000C1F30311515CC84006490860064800681D
:1019E000FFF756FE0020C2E7002002400010024030
:1019F0009653000810000020080000200F2202600B
:101A00000C4A536803F003034360536803F0F00388
:101A10008360536803F4E063C36052684FF4E0638B
:101A200003EAD20202610448006800F0070008607F
:101A300070470000001002400020024004480549A1
:101A400000684968044AC1F30221515CC8407047EC
:101A50001000002000100240A65300080448054969
:101A600000684968044AC1F3C221515CC84070470C
:101A70001000002000100240A65300080E4A5168D2
:101A80000E4801F00C03042B11D0082B0FD10C4889
:101A9000C1F38343C903C05C0AD55168084AC1F346
:101AA0004041921E515C054A5043B0FBF1F0704733
:101AB00004494843704700000010024000127A00B9
:101AC0008653000800093D002DE9F84F040070D04E
:101AD0002078C04DC00749D06868C0F38100012854
:101AE00007D06868C0F38100022809D16868C00384
:101AF00006D52868800339D560680028E7D035E02E
:101B00006068B0F5803F0BD010B1B0F5A02F11D0B8
:101B1000286820F480302860286820F4802002E0C3
:101B2000286840F480302860606890B1FFF790FD2D
:101B300006460AE0286840F480202860F0E700BFED
:101B4000FFF786FD801B642873D828688003F7D5CB
:101B50000CE0FFF77DFD064605E000BFFFF778FDCE
:101B6000801B6428F0D828688003F7D420789A4E28
:101B700080074FF001094FF0000839D5686810F070
:101B80000C0F07D06868C0F38100022809D168688B
:101B9000C00306D42868800714D52069012808D11D
:101BA00010E02069B0B1C6F80090FFF751FD07467C
:101BB00005E00AE1FFF74CFDC01B0228C4D82868E5
:101BC0008007F7D52868616920F0F80040EAC10075
:101BD00028600DE0C6F80080FFF73AFD074604E0F4
:101BE000FFF736FDC01B022823D828688007F7D4EA
:101BF000207800072CD57948A169D9B1C0F80090A8
:101C0000FFF726FD074604E0FFF722FDC01B022870
:101C10000FD8686A8007F7D571484FF4FA51006809
:101C2000B0FBF1F0009000BF0098411E0091FAD285
:101C30000EE080E0C0F80080FFF70AFD074604E0F0
:101C4000FFF706FDC01B022875D8686A8007F7D425
:101C50002078400760D5E8690027C00008D4E8690B
:101C600040F08050E861E869012700F08050009062
:101C70005C480168C90513D40168834641F480714A
:101C80000160FFF7E5FC824606E000BFFFF7E0FCDD
:101C9000A0EB0A0064284ED8DBF80000C005F5D59B
:101CA000E06801280AD008B1052813D0286A20F07E
:101CB00001002862286A20F0040002E0286A40F04F
:101CC00001002862E06841F2883B98B1FFF7C0FC50
:101CD00082460BE0286A40F004002862EEE700BF6D
:101CE000FFF7B6FCA0EB0A0159455AD8286A8007CD
:101CF000F6D50CE0FFF7ACFC824605E0FFF7A8FC48
:101D0000A0EB0A0159454CD8286A8007F6D41FB1C8
:101D1000E86920F08050E861E06988B36968C1F340
:101D20008101022944D00228C6F8608004D0FFF760
:101D30008FFC044638E034E0FFF78AFC074604E0F5
:101D4000FFF786FCC01B02282BD828688001F7D437
:101D5000206AB0F5803F05D16868A16820F40030A2
:101D600008436860D4E908010843696821F47411E4
:101D700008436860C6F86090FFF76AFC044606E016
:101D800025E000BFFFF764FC001B022809D8286883
:101D90008001F7D51BE000BFFFF75AFC001B0228AB
:101DA00002D90320BDE8F88F28688001F4D40EE042
:101DB0000128F7D06868226A00F48031914204D18A
:101DC000616A00F47010884201D00120EAE7002027
:101DD000E8E7000000100240000042428004424256
:101DE00010000020007000407047704770B590F8F8
:101DF0003C20012A26D0012480F83C40022280F8B1
:101E00003D2003685A689D6822F070060A683243D4
:101E10005A600D4B02689A4208D0B2F1804F05D04B
:101E20000A4B9A4202D00A4B9A4204D1496825F0E3
:101E300080031943916080F83D40002180F83C10F8
:101E4000084670BD022070BD002C01400004004017
:101E50000008004010B5040003D094F83D0010B114
:101E600007E0012010BD002084F83C00204600F06F
:101E70001EF8022084F83D00211D206801F0A4F81E
:101E8000012084F8460084F83E0084F83F0084F87E
:101E9000400084F8410084F8420084F8430084F84C
:101EA000440084F8450084F83D00002010BD7047D0
:101EB00090F83D10012901D001207047022180F8DF
:101EC0003D1000680B49884208D0B0F1804F05D022
:101ED0000949884202D00949884204D1816801F049
:101EE0000701062903D0016841F0010101600020CB
:101EF00070470000002C0140000400400008004032
:101F000090F83D10012901D001207047022180F88E
:101F10003D100168CA6842F00102CA6000680B49BE
:101F2000884208D0B0F1804F05D00949884202D0DC
:101F30000849884204D1816801F00701062903D0CD
:101F4000016841F00101016000207047002C014050
:101F5000000400400008004070472DE9F0410446AD
:101F60000068C66805694FF00007A90713D5B107D7
:101F700011D5F91E01610120207720688069800752
:101F8000204602D0FFF7E8FF04E000F0AFF820465B
:101F900000F052F92777680716D5700714D5216825
:101FA0006FF004000861022020772068806910F437
:101FB000407F204602D0FFF7CFFF04E000F096F804
:101FC000204600F039F92777280715D5300713D5B3
:101FD00021686FF008000861042020772068C0693C
:101FE0008007204602D0FFF7B7FF04E000F07EF83C
:101FF000204600F021F92777E80616D5F00614D51B
:1020000021686FF010000861082020772068C069FF
:1020100010F4407F204602D0FFF79EFF04E000F05E
:1020200065F8204600F008F92777E80708D0F007A0
:1020300006D021686FF001000861204600F04CF9DD
:10204000280608D5300606D521686FF080000861A3
:102050002046FFF7C9FE680608D5700606D5216838
:102060006FF040000861204600F040F9A8060AD54C
:10207000B00608D521686FF0200008612046BDE851
:10208000F041FFF7B2BEBDE8F081000000B585B0B9
:10209000002100910191029103910068B0F1804FFD
:1020A0001BD10F48816941F008018161806969464F
:1020B00000F00800049040F60840009002200190D3
:1020C00003900848FFF7CAF90748416821F44071B6
:1020D00041F0E06141F44071416005B000BD000095
:1020E00000100240000C014000000140704770B534
:1020F000044690F83C0000260D4601280FD0012030
:1021000084F83C006AB1042A1DD0082A2FD00C2A7A
:102110003FD00126002084F83C00304670BD0220EC
:1021200070BD206800F09AFF2068816941F00801C5
:1021300081612068816921F00401816120688169E1
:102140002A69114311E0206800F0B0FF206881691E
:1021500041F4006181612068816921F480618161BD
:10216000206881692A6941EA02218161D2E72068F9
:1021700000F0C8FF2068C16941F00801C161206812
:10218000C16921F00401C1612068C1692A69114354
:1021900011E0206800F0E2FF2068C16941F40061AD
:1021A000C1612068C16921F48061C1612068C16991
:1021B0002A6941EA0221C161ACE710B5040003D0ED
:1021C00094F83D0010B107E0012010BD002084F814
:1021D0003C00204600F01EF8022084F83D00211D3E
:1021E000206800F0F1FE012084F8460084F83E00EB
:1021F00084F83F0084F8400084F8410084F84200ED
:1022000084F8430084F8440084F8450084F83D00D5
:10221000002010BD08B50068B0F1804F08D1054816
:10222000C16941F00101C161C06900F00100009085
:1022300008BD0000001002407047000010B50446C1
:10224000022249B104290ED0082913D094F8410084
:10225000012816D0012010BD94F83E000128F9D1C4
:1022600084F83E200FE094F83F000128F2D184F872
:102270003F2008E094F840000128EBD184F840208A
:1022800001E084F841200122206800F0D9FE0F49C6
:102290002068884203D1426C42F4004242642068C4
:1022A000884208D0B0F1804F05D00949884202D059
:1022B0000849884204D1816801F00701062903D04A
:1022C000016841F001010160002010BD002C0140B7
:1022D000000400400008004000680349884201D122
:1022E000FFF7BCB970470000002C014070477047F1
:1022F00070470000F8B5016804460868CA684B6971
:1023000010F00F0F4FF0000559D003F0010602F452
:102310009077374365D0C10705D0D10503D5616CEF
:1023200041F001016164410705D5D90703D0616C13
:1023300041F002016164810705D5D90703D0616CC2
:1023400041F004016164010707D502F02001314327
:1023500003D0616C41F008016164616C00293AD0DE
:10236000800604D5900602D5204600F048FF20687C
:102370004069616CC0F38010090700D460B3204647
:1023800000F016FF20684069400621D5206814300F
:1023900050E8001F21F0400140E80012002AF5D16A
:1023A000E06BA8B16D494163E06BFEF7FBFE0028CE
:1023B00011D0E06B416B01B0BDE8F04008478306E7
:1023C0000FD593060DD52046BDE8F84000F017BFA5
:1023D0002046FFF78DFFF8BD2046FFF789FF6564B3
:1023E000F8BD266B2023012E7CD1C6067AD5D606F1
:1023F00078D508684868009048694FF002064006A2
:1024000040D5E16B086840680004000CE8D0A28D5C
:102410008242E5D9E085886920282DD020680C30DB
:1024200050E8001F21F4807140E80012002AF5D125
:102430002068143050E8001F21F0010140E800122C
:10244000002AF5D12068143050E8001F21F0400127
:1024500040E80012002AF5D184F842302563206854
:102460000C3050E8001F21F0100140E80012002A53
:10247000F5D1E06BFEF772FE6663A08DE18D401A28
:1024800081B22AE0A08DE18D401A81B2E08D002852
:10249000A6D00029A4D022680C3252E8000F20F404
:1024A000907042E80007002FF5D12068143050E802
:1024B000002F22F0010240E80027002FF5D184F818
:1024C0004230256320680C3050E8002F22F01002C3
:1024D00040E80023002BF5D166632046FFF707FF95
:1024E000F8BDFFE705062BD5150629D594F8410060
:1024F0002128F5D1A068B0F5805F01D12069B0B185
:10250000206A411C2162216800784860E08C401EEE
:102510000004000CE084E3D12068C16821F0800150
:10252000C1602068C16841F04001C160D8E7206AFD
:102530000088C0F308004860206A801C2062E5E73C
:102540004006CDD55006CBD5CA68204622F04002C1
:10255000CA6084F8413000F01FF9C1E7A1310008DA
:1025600070B5040004D094F84100002510B106E0D5
:10257000012070BD84F84050204600F023F824204C
:1025800084F841002068C16821F40051C1602046F0
:1025900000F096FE2068016921F4904101612068F5
:1025A000416921F02A0141612068C16841F400516C
:1025B000C1606564202084F8410084F842006563AE
:1025C000002070BD70B586B00025064600950195C7
:1025D000029503950068224988423FD121498869C4
:1025E00040F480408861886900F4804004908869E4
:1025F00040F00400886188691B4C00F004000490DE
:10260000481500900220019003200390694620465F
:10261000FEF724FF2015CDE9000569462046029506
:10262000FEF71CFF124C1148C4E900058020C4E9E4
:102630000250256140016561C4E906502046FEF75D
:10264000A7FE08B1FEF7B3FAF463002205212520A6
:102650006662FFF795F82520FFF784F806B070BD95
:1026600000380140001002400008014058000240BC
:102670002004002090F84230202B01D00220704727
:1026800021B11AB10023036300F076BE0120704728
:10269000154908B5884226D1144A00200090537885
:1026A00013490A2B08D01078FF2816D2107801445D
:1026B000401C10700B7010E01378C85410706946FD
:1026C000106B02F077FA009838B10A494FF0805049
:1026D0000860BFF34F8FBFF36F8F04490122491C7D
:1026E0000148FFF7C7FF08BDD80300207C00002089
:1026F0009C1D002004ED00E02DE9F843044690F80D
:102700004100984616460D46202802D00220BDE81A
:10271000F88385B17EB100206064212084F84100F7
:10272000FEF796FFA6848146E684A0682027B0F5D0
:10273000805F02D003E00120E9E7206910B12E4656
:1027400000250EE000260CE08021204600F088FEE7
:10275000A8B9C6B116F8010B21684860E08C401E8C
:10276000E084E08C4B464FF00002CDF8008000285A
:10277000EAD14FF04001204600F072FE40B184F8EB
:1027800041700320C3E735F8020BC0F30800E3E70C
:1027900084F841700020BAE77047FEE710B50024C6
:1027A000204600F075F8012000F07AF8012000F0D2
:1027B0006FF84FF400710548FEF740FF00B901249F
:1027C000002000F065F8204610BD0000000C01401C
:1027D0001FB500200E4C009001900290024603901D
:1027E0004FF440712046FEF72EFFA01500901120F7
:1027F0000190012002900220039069462046FEF7D6
:102800002DFE6015009069462046FEF727FE1FBD8D
:10281000000C014010B5012000F03AF8012000F052
:102820003FF8002000F03CF8BDE81040002000F028
:102830002FB810B5002000F033F8012000F028F880
:10284000BDE81040012000F02BB810B50446002070
:1028500000F01EF8204600F023F8012000F018F8E0
:10286000BDE81040002000F013B870B50024054604
:10287000802626FA04F0284000D00120FFF7E5FF6B
:10288000641C082CF5DBBDE87040FFF787BF000033
:1028900002464FF480710148FEF7D5BE000C01409E
:1028A00002464FF400710148FEF7CDBE000C014016
:1028B000FEB500241B48009401941949029401605C
:1028C00089158160012505730475032606614FF49F
:1028D00060214460C161FEF7E5FA08B1FEF767F9CF
:1028E00005200094CDE9015069460E48FEF73CFAF8
:1028F00008B1FEF75CF90224CDE9005469460948A5
:10290000FEF732FA08B1FEF752F9CDE90046694602
:102910000448FEF729FA002801D0FEF748F9FEBD69
:10292000002401401C0300200D4808B5416941F016
:10293000010141614069002200F001000090052181
:102940000B20FEF71DFF0B20FEF70CFF00220621D7
:102950000F20FEF715FFBDE808400F20FEF702BF6D
:102960000010024000B587B01C2206496846FDF7FA
:1029700035FC0021684601F0AFFA0349086007B052
:1029800000BD0000685300080000002030B585B08D
:10299000002000900190029003901B48816941F053
:1029A00010018161816901F010010491816941F098
:1029B00020018161816901F020010491816941F068
:1029C00004018161816901F004010491816941F090
:1029D0000801816180690D4D00F008004FF44074DA
:1029E0000490002221462846FEF72DFE1120CDE955
:1029F0000040012002900220039069462846FEF71D
:102A00002DFD05B030BD000000100240000C01405B
:102A100010B58AB0002407941C2168460894FDF77D
:102A2000F6FB1D484FF0804101608C21C0E9011484
:102A3000FF21C0E903148461FFF7BFFB08B1FEF773
:102A4000B6F8079407A914480894FFF7CFF908B11E
:102A5000FEF7ADF86020CDE9000402940422694637
:102A60000D480494FFF743FB08B1FEF7A0F80822D5
:102A700069460948FFF73BFB08B1FEF798F80C22BE
:102A800069460548FFF733FB08B1FEF790F80248A6
:102A9000FFF7FCFA0AB010BD900300200C4810B5F7
:102AA0000A4901604FF4E1314160002181600C224C
:102AB000C160C0E904128161C161FFF751FD0028C6
:102AC00003D0BDE81040FEF772B810BD00380140D9
:102AD000D8030020FEE7FEE770B500240021204661
:102AE00000F07DF80025002000F08FF96D1CEDB29C
:102AF000802DF8D3641CE4B2082CEFD370BD000025
:102B000010B5FFF765FE064C012211022046FEF7C4
:102B10009AFD20460122BDE810405102FEF793BD08
:102B2000000C014010B500204FF47A720021491CBE
:102B30009142FCD3401C9042F8D3FFF7E1FFAE2056
:102B400000F052F9D52000F04FF9802000F04CF948
:102B5000A82000F049F93F2000F046F9D32000F00A
:102B600043F9002000F040F9402000F03DF9A12099
:102B700000F03AF9C82000F037F9DA2000F034F913
:102B8000122000F031F9812000F02EF9CF2000F062
:102B90002BF9D92000F028F9F12000F025F9DB20ED
:102BA00000F022F9302000F01FF9A42000F01CF9F9
:102BB000A62000F019F98D2000F016F9142000F07D
:102BC00013F9AF2000F010F9BDE81040FFF784BF03
:102BD0000246012000E05043491EFCD2704710B568
:102BE0000C4640F0B00000F0FFF8102040EA14104E
:102BF00000F0FAF804F00F00BDE8104000F0F4B85F
:102C00002DE9F0410746CE004000083E801E1546E3
:102C10004FF0FF38F1B2C0B2FFF7E1FF11480024D6
:102C200000EB05152819A0F5805090F8000E00F073
:102C3000ECF8641CE4B2082CF4D308EB4700F1B2C2
:102C4000C0B2FFF7CCFF00242819A0F5805090F8FF
:102C5000080E00F0DAF8641CE4B2082CF4D3BDE8E6
:102C6000F0810000AE5300082DE9F04700241D4616
:102C70001646884681460A2713E0291B0A20491E6A
:102C8000FFF7A6FFB6FBF0F0B0FBF7F107FB110270
:102C900008EB0400C1B248463032FFF7B1FF641CB4
:102CA000E4B2AC42E9D3BDE8F0872DE9F041154626
:102CB0000E460746002406E03019C1B23846FFF739
:102CC0009FFF641CE4B22A5D002AF5D1BDE8F081C3
:102CD0001CB53A4F3A4C4FF0FF36642532466946F0
:102CE000A06B01F0B5FF0128F8D13146A06A02F0CF
:102CF0004BF89DF8000020B101281ED0022839D1E0
:102D00003FE001212FA20846FFF7CFFF0198FDF712
:102D10005FFB0123024606211846FFF7A5FF39464F
:102D20000198FDF78DFAFDF753FB90FBF5F105FBDC
:102D300011020223082101201AE025A2012102200C
:102D4000FFF7B3FF0198FDF743FB0246012306217D
:102D50000220FFF789FF39460198FDF771FAFDF768
:102D600037FB90FBF5F105FB110202230821184601
:102D7000FFF77AFF00231A461946A06A01F06AFE9F
:102D8000ACE716A201210320FFF78FFF0198FDF7A2
:102D90001FFB0246012306210320FFF765FF39468A
:102DA0000198FDF74DFAFDF713FB90FBF5F105FBDC
:102DB0001102022308210320DAE700000000C842C4
:102DC0007C000020414443313A302E303056000020
:102DD000414443323A302E303056000041444333B0
:102DE0003A302E303056000010B50446FFF712FD81
:102DF0007820FFF73AFD0020FFF737FD2046FFF768
:102E000034FDBDE81040FFF714BD10B50446FFF7D0
:102E100001FD7820FFF729FD4020FFF726FD204621
:102E2000FFF723FDBDE81040FFF703BD044B10B5CD
:102E30001C68A0631868C1631868026410BD0000B4
:102E4000900300201CB503222D492E48FEF700F9FF
:102E50002B4C4FF0FF39403C4946E06A01F094FFAB
:102E60000128F9D1264D00208DF800002888FDF7B3
:102E7000A2FA254F4FF0663632463B46FDF712FA6E
:102E80006FF00B084246FDF77FFAFDF7CDFA0023FD
:102E900001901A466946606B01F0DCFD01208DF857
:102EA00000006888FDF787FA32463B46FDF7FAF9DD
:102EB0004246FDF769FAFDF7B7FA002301901A467A
:102EC0006946606B01F0C6FD02208DF80000A888FD
:102ED000FDF771FA32463B46FDF7E4F94246FDF74D
:102EE00053FAFDF7A1FA002301901A466946606B78
:102EF00001F0B0FD4FF4FA6001F0E0FBACE7000038
:102F0000BC0000201C03002066660A40012000F07F
:102F1000D7FFFBE710B5502080F31188BFF34F8F28
:102F2000BFF36F8F02F08CF818B104494FF0805056
:102F30000860002080F3118810BD000004ED00E05F
:102F400030B593B028216846FDF761F914210AA82D
:102F5000FDF75DF9002501200F95109511950104ED
:102F600012958DE8230004904FF4E010CDE908108D
:102F7000022407946846FEF7A7FD08B172B6FEE783
:102F80000AA90F2081E831004FF48060CDE90D05DA
:102F900002210AA8FEF79CFC08B172B6FEE74FF4C6
:102FA000404011900F940FA8FEF71CFC002801D0A0
:102FB00072B6FEE713B030BD704700000148FEF75F
:102FC000CCBF000064040020F0B50268194B1A4C15
:102FD0001A4D4FF08047984205D0B84203D0A04226
:102FE00001D0A84203D122F070064A6832439842C9
:102FF00005D0B84203D0A04201D0A84203D122F4A8
:103000004074CA6822434C6922F080022243026065
:103010008A68C2620A688262984201D109690163C2
:10302000012141610169C90703D0016921F0010152
:103030000161F0BD002C0140000400400008004088
:1030400010B501F01F030121046A99408C4304620A
:10305000016A9A401143016210BD000030B5036A55
:10306000026A22F0010202624268846924F0730558
:103070000C682C4323F002058B682B430A4DA842B1
:103080000BD123F00805CB6822F440722B434D6925
:1030900023F0040315438A692A4342608461496826
:1030A0004163036230BD0000002C014030B5026A6C
:1030B000036A23F010030362436884690D6824F4F3
:1030C000E64444EA05248D6822F0200242EA051213
:1030D0000B4DA8420ED1CD6822F0800242EA0512C3
:1030E0004D6923F4406343EA85038D6922F0400271
:1030F00043EA85034360846149688163026230BDAD
:10310000002C014030B5036A026A22F48072026228
:103110004268C46923F4007324F073050C682C43DF
:103120008D6843EA05230C4DA8420ED1CD6823F4E7
:10313000006343EA05234D6922F4405242EA051236
:103140008D6923F4806342EA05124260C4614968D4
:10315000C163036230BD0000002C014030B5046A39
:10316000026A22F4805202624268C3690D6823F445
:10317000E64343EA05238D6824F4005444EA053409
:10318000064DA84204D14D6922F4804242EA8512DC
:103190004260C36149680164046230BD002C014093
:1031A00010B5406A0021C185C184FFF7A1F810BDA8
:1031B00001680C3151E8002F22F4907241E800239D
:1031C000002BF5D10168143151E8002F22F00102E3
:1031D00041E80023002BF5D1016B012909D10168D9
:1031E0000C3151E8002F22F0100241E80023002B9F
:1031F000F5D1202180F8421000210163704708B505
:1032000090F84210222901D0022008BD82684FF4B4
:1032100080539A4201D1016921B1816A9A421BD03F
:103220004AB10AE00268816A5268C2F308020A8061
:10323000816A891C08E0026972B10268526802F072
:103240007F020A70816A491C8162C18D491E09048E
:10325000090CC18503D01BE002685268F1E70168E0
:10326000CA6822F02002CA600168CA6822F480722B
:10327000CA6001684A6922F001024A61202180F88F
:10328000421000214163026B012A03D0FFF700FACC
:10329000002008BD016301680C3151E8002F22F0C5
:1032A000100241E80023002BF5D101680A68D2061C
:1032B00002D50A6849680091818DFFF718F8E7E7A1
:1032C00070B5044600680169E26821F44051114379
:1032D00001612169A0680843616908432168CA68DF
:1032E00041F20C639A430243CA6020684169A269B3
:1032F00021F44071114341611E492068884202D186
:10330000FEF7ACFB01E0FEF799FB00EBC00101EB1F
:103310000012606864218000B2FBF0F3B3FBF1F3AC
:103320006FF018067343B2FBF0F5B2FBF0F605EB55
:103330008305322303EB0515B5FBF1F5B6FBF1F67A
:1033400005F0F00505EB0615B2FBF0F6B2FBF0F068
:10335000B0FBF1F06FF01802504306EB800003EB76
:103360000010B0FBF1F0216800F00F0028448860E5
:1033700070BD00000038014081628285C285002155
:103380004164222180F84210016921B10168CA68B4
:1033900042F48072CA6001684A6942F001024A61DF
:1033A0000068C16841F02001C16000207047000042
:1033B000A8B01F4C4FF0FF394A4626A9E06B01F038
:1033C00047FC0128F8D19DF8980020B1012805D0CC
:1033D000022808D105E02798A06104E02798E06161
:1033E00001E027982062206AFDF70BF8074688461F
:1033F000E069FDF706F805460E46A069FDF701F8FD
:1034000002460B468DE8EC010AA2802106A800F0D6
:1034100079F84946606A01F0B7FC06A90FA000F0F0
:1034200061F800231A461946606A01F013FBC3E7EE
:103430007C0000207B2274656D70223A252E316657
:103440002C2268756D69223A252E31662C226C6912
:10345000676874223A252E31667D0A0025730000C4
:103460002DE9F843984617460D460446089E24E089
:10347000701C22D0FEF7ECF8A0EB0800B0421AD87E
:10348000CEB12068C168490717D5802D15D0402DD1
:1034900013D00168C94309070FD4016800254068AB
:1034A00000902046FFF784FE0820606484F84050B6
:1034B0000120BDE8F8830320FBE72068006835EAB7
:1034C000000004D00020B842D2D00020F1E7012053
:1034D000F9E700000148FEF70DBF0000D803002007
:1034E000FEE700000FB4054B10B503A9044A02988B
:1034F00000F002F910BC5DF814FB00003D3E00082E
:10350000C40000200FB41CB50246002007AC0029FF
:103510000BD0491ECDE90021054B6A46214606988D
:1035200000F0EAF8009A002111701CBC5DF814FB51
:10353000273E00080907090E002804DB00F1E020FF
:1035400080F80014704700F00F0000F1E02080F8D0
:10355000141D704702E008C8121F08C1002AFAD1E2
:1035600070477047002001E001C1121F002AFBD103
:10357000704700002DE9FF5F82B00021DDE90430D3
:10358000020DDDF840B0034318D044F61050A2F20B
:10359000FF3242431514119801281FD0A5EB0B00F0
:1035A000401C5FEA000A4FF000064E4FDFF83891EA
:1035B000B046504615D5CAF1000413E01198012415
:1035C0004AA3012801D16FEA0B010298119AC0E9C0
:1035D0000031C0E9024206B0BDE8F09FCBF1000027
:1035E000DFE704460021404A491842EB0450CDE988
:1035F000001012E0E00707D032463B4640464946FD
:10360000FCF750FE8046894632463B461046194636
:10361000FCF748FE06460F466410002CEAD1DDE9AF
:103620000401DDE90023BAF1000F06DAFCF73AFEE7
:1036300042464B46FCF736FE05E0FDF793F842465E
:103640004B46FDF78FF804460E460022284BFDF747
:1036500011F903D84FF0FF30014607E00022254B57
:1036600020463146FCF7D7FFFDF7EBF8102409E0C0
:10367000002C0ADB0A220023FCF708FF039B3032F0
:103680001A55641E50EA0102F2D1641C039AC4F177
:1036900011031444119A012A03D0012208430DD1C9
:1036A0000AE0084304D000204FF0110B119072E79C
:1036B000A3EB0B056D1E0DE05B4504DD4FF0000232
:1036C00005F1010504E003DA4FF00002A5F1010560
:1036D000002AECD002981199C0E90231C0E90045F6
:1036E00079E70000000014400000F03F30000000C7
:1036F0000000F0430000E03F2DE9FF4F95B09B46EE
:103700008946064600250FE2252877D10024274662
:10371000F84A0121059400E0044316F8013F203BDC
:1037200001FA03F01042F7D130782A2811D06FF057
:103730002F033078A0F13002092A16D8059A44F0F8
:10374000020402EB820203EB42021044761C059055
:10375000EFE759F8042B0592002A03DA504244F4AB
:103760000054059044F00204761C30782E2816D1BF
:1037700016F8010F44F004042A280DD06FF02F0230
:103780003078A0F13003092B09D807EB870302EB4F
:103790004303C718761CF3E759F8047B761C30788E
:1037A0006C280FD006DC4C2817D068280DD06A286A
:1037B00014D104E0742810D07A280FD10DE044F41D
:1037C00000140AE044F4801401E044F440147278D8
:1037D000824202D104F58014761C761C307866286B
:1037E0000BD013DC582877D009DC002875D0452889
:1037F000F6D04628F4D047281AD19DE118E0632876
:1038000035D0642879D0652812D195E1702873D01D
:1038100008DC6728F1D069286FD06E280DD06F289A
:1038200006D1B5E073282CD0752875D0782874D0CF
:103830005A46179990476D1C75E1C4F3025002284F
:1038400009D003280DD0D9F8001004280DD00D6040
:1038500009F1040967E1D9F80010EA17C1E900523B
:10386000F6E7D9F800100D80F2E70D70F0E719F8CF
:10387000041B8DF8001000208DF80100EA4601209D
:1038800003E059F804AB4FF0FF3061074FF000013F
:1038900002D40DE008F101018846B9420FDA8045F3
:1038A000F8DB1AF808100029F4D108E008F101014A
:1038B00088468142FADB1AF808100029F6D10598EB
:1038C0005B46A0EB080721463846179A00F094FAA9
:1038D000284400EB080507E04DE029E10DE01AF867
:1038E000010B5A4617999047B8F10108F7D25B4689
:1038F00021463846179A13E142E00A220092C4F3A7
:1039000002524FF0000A022A08D059F804CB032AC9
:103910004FEAEC710AD00DE029E02AE009F1070135
:1039200021F00702F2E802C1914609E00FFA8CFC8F
:103930004FEAEC71042A03D14FFA8CFC4FEAEC7188
:10394000002907DA0A460021DCF1000C61EB0201D4
:103950002D2202E0220504D52B228DF8042001221D
:1039600003E0E20701D02022F7E7904659E00A2160
:1039700002E010220DE010214FF0000A00910BE050
:1039800010224FF0000A44F004040827009203E0DC
:1039900008224FF0000A0092C4F30252022A05D016
:1039A00059F804CB0021032A08D009E009F10701E6
:1039B00021F00702F2E802C1914605E01FFA8CFCF3
:1039C000042A01D10CF0FF0C4FF00008220728D583
:1039D000702806D0009B83F0100353EA0A0305D039
:1039E0000EE040228DF80420012208E05CEA01028A
:1039F00006D030228DF804208DF805000222904672
:103A0000009B83F0080353EA0A030AD15CEA01022F
:103A100001D1620705D530228DF804204FF001084E
:103A20007F1E582804D034A003900EA802900DE009
:103A300036A0F9E753466046009AFCF727FD844616
:103A40000398825C0298401E029002705CEA0100BA
:103A5000F0D1029806A9081A00F1200A600702D5E1
:103A600024F4803400E00127574502DDA7EB0A006B
:103A700000E0002000EB0A01009005984144401A44
:103A80000590E00306D45B462146179A059800F09E
:103A9000B3F90544002706E001A85A46C05D17990E
:103AA00090476D1C7F1C4745F6DBE0030CD55B4659
:103AB0002146179A059800F09FF9054404E030204C
:103AC0005A46179990476D1C0099481E009000298E
:103AD000F5DC08E0029802995A460078491C0291E8
:103AE000179990476D1CBAF10001AAF1010AF1DCA7
:103AF00065E10000092801003031323334353637B2
:103B00003839616263646566000000003031323329
:103B100034353637383941424344454600000000C9
:103B200000F058F90544761C307800287FF4ECAD9D
:103B300019B02846BDE8F08F620700D4062709F1C6
:103B4000070222F0070CFCE80223E14603F00048DC
:103B50005FEA080C02D00FF2702C0DE05FEA045C03
:103B600002D50FF2682C07E05FEAC47C02D00FF2A6
:103B7000602C01E0AFF2700C4FF0FF3823F00043EF
:103B8000CDF850C065280CD006DC452809D0462861
:103B90001DD047283DD13DE0662818D067287ED14A
:103BA00038E00021112F01DB112000E0781CCDE965
:103BB000000106A90EA8FFF7DDFCDDE90F010E9A52
:103BC00003910021009207F1010A04914DE04FF0AA
:103BD00000400097CDE9011006A90EA8FFF7CAFC26
:103BE000DDE90F0203920E9B11990022DDF80CA073
:103BF0000093049211B9791C00EB010AB7EB0A009B
:103C000004D4C0F1FF3007F1010A0490AAEB0700C9
:103C1000019044E0012F00DA01270021112F01DD7E
:103C2000112000E03846CDE9000106A90EA8FFF7F3
:103C3000A1FCDDE90F010E9A03910021049100928D
:103C4000BA4621070CD40399514500DA8A46BAF1E5
:103C5000010F05DD009AAAF10101515C302908D05D
:103C6000B84202DA10F1040F06DA0121CDE90110A1
:103C700015E0AAF10101E9E7002805DC04990144F7
:103C80000491AAEB000102E0411C514500DD8A4687
:103C90000499401A401C01904FF000400290200708
:103CA00004D40198504501DBCDF8048000208DF844
:103CB0004F0002980DF14F07B0F1004F25D02B2097
:103CC0000E9002984FF0020800280CDA4042029051
:103CD0002D200E9007E00A210298FCF7C1FB30313D
:103CE000029007F8011DB8F10001A8F10108F2DC0B
:103CF00002980028EFD1791E0E980870307800F0F5
:103D0000200040F0450007F8020D12A8C01B00F18A
:103D100007081498007800B1012000EB0A0101980F
:103D200001EBE07105984144401A401E0590E00304
:103D300006D45B462146179A059800F05DF80544C5
:103D40001498007818B15A46179990476D1CE003F3
:103D500024D55B462146179A059800F04DF8054496
:103D60001CE00498002807DBDDE90301884203DD3D
:103D70000098405C179901E0179930205A46904707
:103D8000049805F10105401C04900198401E019023
:103D900004D12E205A46179990476D1CBAF10001A4
:103DA000AAF1010ADDDC05E017F8010B5A46179964
:103DB00090476D1CB8F10001A8F10108F4DC5B46E6
:103DC0002146179A0598ABE62D0000002B00000055
:103DD000200000002DE9F041044600251E4617464C
:103DE000880404D405E039462020B0476D1C641EC9
:103DF000F9D52846BDE8F0812DE9F04104460025BB
:103E00001E469046C80301D5302700E020278804CD
:103E100004D505E041463846B0476D1C641EF9D50F
:103E20002846BDE8F0814A68002A06D00A68531C7B
:103E30000B6010704868401E4860704713B54FF41F
:103E40007A73012269460248FEF756FC00981CBDB1
:103E5000D8030020FDF70AFCFFF772F8FEF796FD85
:103E6000FEF762FDFEF71AFEFEF722FDFEF7D0FD1B
:103E70000D48FEF71DF804210B48FEF7DFF9082175
:103E80000948FEF7DBF90C210748FEF7D7F90122B4
:103E900006490748FEF7EEFBFCF78CFEFEF762FDD5
:103EA00000F015F8FEE70000900300207D000020E0
:103EB000D803002001460020842900D0C81C704788
:103EC00010B500B9012000F0F9FB002010BD10B5BD
:103ED00000F090FC002010BD7FB50D4604464169FE
:103EE000B0F9080081B1A16971B1FFF7E3FFD4E92E
:103EF00005128DE80700D4E900102B46226901F075
:103F000066F8039004B070BDFFF7D4FF03A9CDE9B4
:103F10000001208A2B4682B2D4E9001001F02AF871
:103F2000012801D00020EDE70398EBE72DE9F041EF
:103F3000184C0F460546E6682068001D00F0CCFAD4
:103F400038B9206890F82C100120884021698143FD
:103F50002161681C07D137B12168BDE8F0410E48E6
:103F6000091D00F0FDBA20683544B542456021685E
:103F700005D2A06BBDE8F041091D00F0D9BA606B15
:103F8000091D00F0D5FAA06A854200D2A562BDE8FD
:103F9000F081000014000020880500202DE9F04188
:103FA000054600F0E9FA2E4CA068401CA06020688D
:103FB0002C4F10B1606940B32DE02560A068012846
:103FC00029D1002606EB860007EB800000F0A2FA5C
:103FD000761C072EF6D323488C3000F09BFA21483C
:103FE000A03000F097FA1F48B43000F093FA1D4853
:103FF000C83000F08FFA1B48DC3000F08BFA19480B
:104000008C3060631430A06305E02068E96AC06A00
:10401000884200D82560606A401C6062E96A01201D
:10402000226988401043206101EB810007EB80008A
:10403000291D00F095FA00F0BFFA606900280CD045
:104040002068E96AC06A884207D207494FF0805069
:104050000860BFF34F8FBFF36F8FBDE8F0810000A2
:1040600014000020AC04002004ED00E030B4026C29
:104070000B46002A0BD0C1681144C1608468A1427C
:1040800001D30168C16030BC1846FCF7A7B830BC4A
:1040900070472DE9F041856B174604460026026CF7
:1040A00082B1C7B1E068FCF799F8E168206C091AA1
:1040B000E1602268914202D2A168081AE060022FF2
:1040C00016D017E02068A8B9A06801F01FF80646CE
:1040D0000020A0600EE06068FCF780F8216C60684A
:1040E00008446060A168884204D32068606001E0F1
:1040F00005B16D1E6D1CA5633046BDE8F08110B59D
:10410000044690F8510058B101280CD002280FD075
:10411000502080F31188BFF34F8FBFF36F8FFEE7FE
:10412000206B00F05DFA2046BDE8104000F058BA60
:1041300010BD000010484FF4C051420706D0C01D0A
:104140000D4920F00700411AC1F5C0510B4A002368
:104150000144C2E900030839183A21F0070111604F
:104160004B600B600B1AC0E9001393604FF00040E6
:1041700053605061704700009C05002068000020DB
:10418000144E154CA6F1C8074FF08058DFF84C903C
:1041900012E000BF00F0F0F9F068C568281D00F0DB
:1041A0009BF9A068401EA0606068401E606000F03F
:1041B00003FA2846FFF7A3FF60680028EAD13868B1
:1041C0000128F9D9C9F80080BFF34F8FBFF36F8F73
:1041D000F2E70000740500201400002004ED00E068
:1041E000002807D00021816001600B460A46C160AB
:1041F00000F030BC70470346009829B10260C0E966
:104200000F31012100F0E2BB0060F8E72DE9F04733
:104210009A46DDE9098481466FF00303206B03EBC6
:1042200082021044089E20F00707780707D050202C
:1042300080F31188BFF34F8FBFF36F8FFEE7002528
:1042400061B1002023180A5C83F834200A5C12B1A3
:10425000401C1028F6D384F8435001E084F8345011
:10426000072E00D30626E662C4E91165201D00F082
:104270005CF904F1180000F058F92461C6F1070058
:104280006462A061E56484F850505246494638465D
:1042900000F010F92060B8F1000F01D0C8F800401C
:1042A000BDE8F08730B5114900E011460A68824246
:1042B000FBD34B685C18844203D1406818444860C3
:1042C000084643681C18944209D1084C183C2468DD
:1042D000A24209D052681A4442600A681268026019
:1042E000814200D0086030BD0460F9E7680000201A
:1042F00010B5044600F040F9A06B28B15FF000044F
:1043000000F05AF9204610BD0124F9E70648416B38
:10431000096829B1416BC968C968496881627047F9
:104320004FF0FF31FAE70000140000200848406811
:10433000401C4FF0500080F3118804D0BFF34F8F22
:10434000BFF36F8FFEE7BFF34F8FBFF36F8FFEE7B3
:10435000700000202DE9F041044600F00DF994F9B9
:10436000455004F1240609E0606A48B1304600F087
:104370005FFF08B100F0D0F96D1E6DB2002DF3DCC7
:104380004FF0FF3684F8456000F016F900F0F4F8BD
:1043900094F9445004F1100709E0206948B1384607
:1043A00000F046FF08B100F0B7F96D1E6DB2002DA8
:1043B000F3DC84F84460BDE8F04100F0FDB8000093
:1043C0002DE9F0410546002700F04AFA324E3068E8
:1043D00008B9FFF7AFFE706905424ED1C5B3083585
:1043E00068070ED005F00700C0F108000544680713
:1043F00007D0502080F31188BFF34F8FBFF36F8F2A
:10440000FEE72DB37068854237D82348183001463F
:104410000C6801E020460C466168A94202D221687E
:104420000029F7D131688C4227D0076821680160E4
:1044300060680837411B10290FD96019420708D05E
:10444000502080F31188BFF34F8FBFF36F8FFEE7CB
:1044500013E041606560FFF725FF61687068401AEE
:104460007060B268904200D2B06070690143002071
:10447000C4E90001F068401CF06000F013FF780709
:1044800007D0502080F31188BFF34F8FBFF36F8F99
:10449000FEE73846BDE8F081500000200449086876
:1044A00018B10868826C521C82640868704700006A
:1044B0001400002010B5031F4FF080741C601B1FF8
:1044C00021F001011960191F024B0B6014394038AB
:1044D0000A6010BD2D430008D0E9013201699A60DD
:1044E000D0E901235A604A68824201D182684A6059
:1044F000002202610868401E0860086870470000DA
:10450000034B036003F15400086080201060704783
:10451000C800002000F108014FF0FF32C0E901128D
:10452000C160016100210160704700210161704795
:1045300030B50B685A1C02D000F1080202E0026993
:1045400004E02246546825689D42FAD953684B60BE
:1045500099608A60516008610168491C016030BD42
:1045600042684A6093688B60936859609160086103
:104570000168491C01607047502080F31188BFF327
:104580004F8FBFF36F8F0A494868401C486001286D
:104590000CD10848006810F0FF0F07D0502080F3BE
:1045A0001188BFF34F8FBFF36F8FFEE77047000096
:1045B0007000002004ED00E00849486828B1401E62
:1045C000486001D180F311887047502080F3118832
:1045D000BFF34F8FBFF36F8FFEE700007000002026
:1045E00070B500282AD0164DA0F1080460686969EA
:1045F000084207D1502080F31188BFF34F8FBFF3DB
:104600006F8FFEE722683AB1502080F31188BFF324
:104610004F8FBFF36F8FFEE78843606000F020F993
:1046200060686968084468602046FFF73BFE2869B7
:10463000401C2861BDE8704000F034BE70BD000031
:10464000500000204FF0E020002101618161054908
:104650004FF47A720968B1FBF2F1491E41610721FA
:10466000016170471000002010B5FBF791FD114962
:1046700010280ED300F1E02090F8F0030A78904261
:1046800007D2502080F31188BFF34F8FBFF36F8F95
:10469000FEE709480068896800F4E060884207D9AD
:1046A000502080F31188BFF34F8FBFF36F8FFEE769
:1046B00010BD0000700000200CED00E010B50200FD
:1046C00014D00F48006B38B1502080F31188BFF32D
:1046D0004F8FBFF36F8FFEE700F0C2F80021104646
:1046E000FFF724FC00F0DEFD002807D105494FF05C
:1046F00080500860BFF34F8FBFF36F8F10BD000075
:104700001400002004ED00E002490A6A0260C96852
:10471000416070471400002001490120C8617047C2
:104720001400002010B50C4650B109490968183131
:10473000FFF7FEFE2046BDE810400121FFF7F6BB63
:10474000502080F31188BFF34F8FBFF36F8FFEE7C8
:104750001400002070B5040047D0A26CA2B1606CB8
:10476000884200D30146E06A88423ED0012A3CD10B
:104770001E4D2A6894420FD1502080F31188BFF358
:104780004F8FBFF36F8FFEE7502080F31188BFF388
:104790004F8FBFF36F8FFEE7E162A269002A02DB51
:1047A000C1F10701A161124E00EB8000616906EBC7
:1047B0008000814219D1201DFFF78EFE012130B902
:1047C00094F82C002A6901FA00F082432A61E06A19
:1047D0002A6981401143296100EB800006EB8000CB
:1047E000211DBDE87040FFF7BBBE70BD1400002066
:1047F000AC04002010B586B00024039405AA04A9D7
:1048000003A80494FFF77CFEDDE903010094CDE9E1
:10481000011000230EA11048059A00F0D8FB0F49A3
:104820000028C86211D0502080F31188BFF34F8F49
:10483000BFF36F8F4FF0FF30886201204861CC607A
:1048400006B0BDE8104000F041B806B010BD000051
:1048500049444C450000000081410008140000203C
:104860000248016B491C01637047000014000020DE
:104870001448016B11B10121C16170470021C16170
:104880000169B1FA81F1C1F11F0101EB81020E4909
:1048900051F822306BB101EB820101F108034A6843
:1048A00052684A609A4201D152684A60D1680160F8
:1048B0007047502080F31188BFF34F8FBFF36F8F85
:1048C000FEE7000014000020AC0400201CB52649BF
:1048D00008780190FF20087008788DF800009DF896
:1048E00000009DF8002000F0F000904207D050201A
:1048F00080F31188BFF34F8FBFF36F8FFEE79DF8F2
:1049000000001A4C00F0500020700720A06005E065
:104910009DF8002052008DF80020401E9DF80020D8
:104920001206F5D4A060032807D0502080F3118828
:10493000BFF34F8FBFF36F8FFEE74FF44070A0605F
:10494000019808700A48016841F47001016001682B
:1049500041F070410160FFF775FE00206060FBF7D9
:10496000E1FB00201CBD000000E400E0700000201E
:1049700020ED00E010B502460021012000F005F80E
:104980000446FFF72DFC204610BDF8B517460E462D
:10499000050013D005FB06F04830FFF711FD0400B9
:1049A0000AD0002084F8460004F148023B46314614
:1049B00028460094FFF71FFC2046F8BD502080F3E6
:1049C0001188BFF34F8FBFF36F8FFEE770B50D46B1
:1049D000040025D0FFF7D0FDD4E90F20216802FBA9
:1049E0000011A1600021A163216861600A46D4E939
:1049F0000F01401E00FB0121E16021464FF0FF3016
:104A000001F8440F487004F110008DB1FFF782FDEA
:104A100004F12400FFF77EFDFFF7CEFD012070BDFD
:104A2000502080F31188BFF34F8FBFF36F8FFEE7E5
:104A300021690029F0D000F0FBFB0028ECD00449EC
:104A40004FF080500860BFF34F8FBFF36F8FE3E7E5
:104A500004ED00E02DE9FF4782B01D468A464FF085
:104A60000008040003D0BAF1000F08D011E0502074
:104A700080F31188BFF34F8FBFF36F8FFEE7206C79
:104A800038B1502080F31188BFF34F8FBFF36F8F81
:104A9000FEE7022D0AD1E06B012807D0502080F3F9
:104AA0001188BFF34F8FBFF36F8FFEE700F0BAFAA4
:104AB0003F4F4FF000094FF0805648B9049838B185
:104AC000502080F31188BFF34F8FBFF36F8FFEE745
:104AD000FFF752FDA06BE16B884207D3022D05D092
:104AE0000498D0B1B8F1000F1AD01EE02A46514602
:104AF0002046FFF7CEFA616A19B104F1240000F0F4
:104B000097FB20B13E60BFF34F8FBFF36F8FFFF76E
:104B100053FD012006B0BDE8F087FFF74DFD22E010
:104B20006846FFF7F1FD4FF00108FFF745FDFFF77D
:104B300097FEFFF721FD94F94400401C01D184F851
:104B4000449094F94500401C01D184F84590FFF74A
:104B500033FD04A9684600F0D3F930B12046FFF7D1
:104B6000F9FB00F09FFB0020D4E7FFF705FDA06BE9
:104B7000E16B884213D1FFF71FFD04F11000049987
:104B8000FFF7D0FD2046FFF7E5FB00F08BFB002888
:104B90009ED13E60BFF34F8FBFF36F8F98E7FFF753
:104BA0000BFD2046FFF7D6FB00F07CFB90E70000F2
:104BB00004ED00E070B50E46040009D0206C78B119
:104BC000502080F31188BFF34F8FBFF36F8FFEE744
:104BD000502080F31188BFF34F8FBFF36F8FFEE734
:104BE000206848B9A06838B1502080F31188BFF31D
:104BF0004F8FBFF36F8FFEE7FFF736FD5020EFF3C7
:104C0000118580F31188BFF34F8FBFF36F8FA16BB6
:104C1000E06B884218D994F94500491CA163411CF6
:104C200004D0401C84F8450001200EE0606A002892
:104C3000FAD004F1240000F0FBFA0028F4D0002E92
:104C4000F2D001203060EFE7002085F3118870BDBD
:104C50002DE9F747002683B08A46040003D0BAF155
:104C6000000F08D011E0502080F31188BFF34F8F60
:104C7000BFF36F8FFEE7206C38B1502080F31188AE
:104C8000BFF34F8FBFF36F8FFEE700F0CBF9DFF874
:104C9000F4804FF000094FF0805748B9059838B1BB
:104CA000502080F31188BFF34F8FBFF36F8FFEE763
:104CB000FFF762FCA56BC5B151462046FFF7D6F958
:104CC0006D1EA563206950B104F1100000F0B0FA28
:104CD00028B1C8F80070BFF34F8FBFF36F8FFFF795
:104CE0006BFC012006B0BDE8F087059808B11EB145
:104CF00006E0FFF761FC27E06846FFF705FD0126A7
:104D0000FFF75AFCFFF7ACFDFFF736FC94F94400BF
:104D1000401C01D184F8449094F94500401C01D115
:104D200084F84590FFF748FC05A9684600F0E8F8CC
:104D3000002820460AD0FFF70DFB00F0B3FA20460A
:104D4000FFF7D6FA0028B3D00020CBE7FFF7D0FA60
:104D500090B104F124000599FFF7E4FC2046FFF729
:104D6000F9FA00F09FFA0028A2D1C8F80070BFF34A
:104D70004F8FBFF36F8F9BE72046FFF7EBFA00F0F2
:104D800091FA95E704ED00E02DE9F343002683B0A6
:104D90000400354609D0206C78B1502080F311888A
:104DA000BFF34F8FBFF36F8FFEE7502080F3118862
:104DB000BFF34F8FBFF36F8FFEE700F033F9DFF8DB
:104DC0003C814FF000094FF0805748B9049838B142
:104DD000502080F31188BFF34F8FBFF36F8FFEE732
:104DE000FFF7CAFBA06BC8B1401EA063206810B9D2
:104DF000FFF754FBA060206950B104F1100000F0EF
:104E000017FA28B1C8F80070BFF34F8FBFF36F8F48
:104E1000FFF7D2FB012005B0BDE8F083049808B18C
:104E200066B10FE03DB1502080F31188BFF34F8F82
:104E3000BFF36F8FFEE7FFF7BFFB5DE06846FFF74C
:104E400063FC0126FFF7B8FBFFF70AFDFFF794FBB1
:104E500094F94400401C01D184F8449094F9450031
:104E6000401C01D184F84590FFF7A6FB04A96846D1
:104E700000F046F80028204612D0FFF76BFA00F049
:104E800011FA2046FFF734FA0028A9D09DB3FFF7A6
:104E900073FB606A50B3206B0068C0F1070126E025
:104EA000FFF726FAE0B1206838B9FFF765FBA06884
:104EB00000F078F90546FFF77FFB04F12400049920
:104EC000FFF730FC2046FFF745FA00F0EBF9002829
:104ED00086D1C8F80070BFF34F8FBFF36F8F7FE7A5
:104EE0002046FFF737FA00F0DDF979E70021A068E6
:104EF000FFF730FC9FE7FFE700208CE704ED00E0C0
:104F00002DE9F0410C46050011D0C4B1FFF734FB88
:104F1000174BDA686E682068911B471C17D02F6802
:104F20001B6A9F4219D0964217D8012410E05020E6
:104F300080F31188BFF34F8FBFF36F8FFEE75020D0
:104F400080F31188BFF34F8FBFF36F8FFEE700240C
:104F5000FFF732FB2046BDE8F081884205D9401AB0
:104F600020602846FFF7D0FBF1E700202060DCE757
:104F7000140000202DE9FF5F8346DDE90E87994686
:104F800016468A469000FFF71BFA05001CD05420F5
:104F9000FFF716FA040014D00020256384F85100AE
:104FA000CDE90240CDE900874B463246514658468E
:104FB000FFF72CF92046FEF7F1FF012004B0BDE811
:104FC000F09F2846FFF70CFB4FF0FF30F6E7F0B5F7
:104FD00085B0DDE90B640A9DA6B1DCB154270097CA
:104FE0002663022684F85160002604AFCDE902460C
:104FF000CDE90057FFF70AF92046FEF7CFFF0498E6
:1050000005B0F0BD502080F31188BFF34F8FBFF380
:105010006F8FFEE7502080F31188BFF34F8FBFF3EF
:105020006F8FFEE70548416919B1006B18B1002088
:1050300070470120704702207047000014000020D4
:105040002DE9F0412F4C0026206B28B1A069401CAF
:10505000A0613046BDE8F081E5686D1CE56013D1C4
:10506000606B006838B1502080F31188BFF34F8F18
:10507000BFF36F8FFEE7606BA16B6163A063206A73
:10508000401C2062FFF742F9A06ADFF87C8085426D
:1050900009D3606B0068A0B1606BC068C7687868AE
:1050A000854211D2A0622068C06A00EB800158F8E6
:1050B0002100012800D90126E0690028C9D0012675
:1050C000C7E74FF0FF30EDE7381DFFF705FAB86A84
:1050D00018B107F11800FFF7FFF9F96A01202269FA
:1050E00088401043206101EB810108EB8100391DEC
:1050F000FFF736FAF86A2168C96A8842C9D30126DF
:10510000C7E7000014000020AC04002070B50400C4
:105110004FF0000140D0214D2868844207D0502034
:1051200080F31188BFF34F8FBFF36F8FFEE7A06C42
:1051300038B1401EA064636CE26A9A422CD040B140
:105140002AE0502080F31188BFF34F8FBFF36F8F99
:10515000FEE7201DFFF7C0F9114A012150B9E06AAE
:1051600000EB800352F8233023B92B6901FA00F0D9
:1051700083432B61606CE062C0F10700A061E06ACC
:105180002B6981401943296100EB800002EB80000C
:10519000211DFFF7E5F90121084670BD140000202C
:1051A000AC04002070B504004FF0000034D01E4D58
:1051B000E16A2A68D26A91422FD2A069002804DBF2
:1051C0002868C06AC0F10700A061184E01EB810198
:1051D000606906EB810188421AD1201DFFF77CF936
:1051E000012130B994F82C002A6901FA00F08243B9
:1051F0002A612868C06AE0622A69814011432961F6
:1052000000EB800006EB8000211DFFF7A9F902E00A
:105210002868C06AE062012070BD616C2A68D26AA9
:105220009142F8D370BD000014000020AC040020AF
:105230002DE9F041C068C468ACB104F1180007461C
:10524000FFF74AF9154D286B0126A0B139461448DD
:10525000FFF786F9E06A2968C96A88421CD90120EB
:10526000EE61BDE8F081502080F31188BFF34F8FCD
:10527000BFF36F8FFEE7201DFFF72EF9E16A2A6961
:1052800006FA01F01043286101EB81000449B439AA
:1052900001EB8000211DDBE70020E2E71400002085
:1052A000600500202DE9F0472C4D00242746286B8F
:1052B00038B1FFF761F9286B401E2863286B40B1B5
:1052C00046E0502080F31188BFF34F8FBFF36F8FFC
:1052D000FEE7A968224E0120D1B3A6F1B4098046A9
:1052E0003068E8B1F068C46804F11800FFF7F4F81A
:1052F000201DFFF7F1F8E06A2A6908FA00F111436E
:10530000296100EB800109EB8100211DFFF728F9DD
:10531000E06A2968C96A8842E2D3C5F81C80DFE7E1
:105320000CB1FEF7F3FFAC6944B14646FFF788FEC7
:1053300000B1EE61641EF9D10020A861E86938B1BE
:105340000849012738070860BFF34F8FBFF36F8FFD
:10535000FFF732F93846BDE8F0870000140000205E
:105360006005002004ED00E0A05900080D2F0008A2
:1053700000000000000000008000000000000000AD
:1053800000000000010202030405060708090A0BD9
:105390000C0D0E0F101000000000000000000102B4
:1053A00003040607080900000000010203040000CE
:1053B00000000000000000000000000000000000ED
:1053C00000F8000000000000003330000000001072
:1053D0000C06100C0600000000000000000040C099
:1053E0007840C0784000043F04043F04040000708B
:1053F00088FC08300000001820FF211E0000F00883
:10540000F000E018000000211C031E211E0000F027
:105410000888700000001E2123241927211010166F
:105420000E0000000000000000000000000000006E
:1054300000E01804020000000007182040000002ED
:105440000418E00000000040201807000000404061
:1054500080F0804040000202010F010202000000C3
:1054600000F0000000000101011F01010100000027
:1054700000000000000080B070000000000000008C
:105480000000000000000001010101010101000015
:1054900000000000000000303000000000000000AC
:1054A000000080601804006018060100000000E0A1
:1054B00010080810E000000F102020100F0000104E
:1054C00010F8000000000020203F202000000070A5
:1054D000080808887000003028242221300000309D
:1054E0000888884830000018202020110E00000095
:1054F000C02010F8000000070424243F240000F816
:105500000888880808000019212020110E0000E0FA
:10551000108888180000000F112020110E0000389C
:105520000808C83808000000003F000000000070B4
:10553000880808887000001C222121221C0000E03D
:1055400010080810E0000000312222110F000000B6
:1055500000C0C0000000000000303000000000006B
:1055600000800000000000008060000000000000DB
:105570008040201008000001020408102000404074
:1055800040404040400004040404040404000008B7
:10559000102040800000002010080402010000706C
:1055A00048080808F0000000003036010000C03054
:1055B000C828E810E0000718272423140B00000077
:1055C000C038E0000000203C23020227382008F801
:1055D000888888700000203F202020110E00C030F5
:1055E000080808083800071820202010080008F8CC
:1055F00008080810E000203F202020100F0008F8C5
:105600008888E8081000203F20202320180008F890
:105610008888E8081000203F200003000000C03008
:1056200008080838000007182020221E020008F889
:1056300008000008F808203F210101213F20000850
:1056400008F8080800000020203F2020000000008B
:105650000808F8080800C08080807F00000008F873
:1056600088C028180800203F20012638200008F8AC
:10567000080000000000203F20202020300008F813
:10568000F800F8F80800203F003F003F200008F82D
:1056900030C00008F808203F200007183F00E01045
:1056A00008080810E0000F10202020100F0008F854
:1056B00008080808F000203F210101010000E01067
:1056C00008080810E0000F18242438504F0008F88C
:1056D000888888887000203F2000030C30200070EC
:1056E0008808080838000038202121221C001808EA
:1056F00008F8080818000000203F2000000008F803
:1057000008000008F808001F202020201F0008784B
:10571000880000C83808000007380E010000F808AB
:1057200000F80008F800033C0700073C03000818D5
:1057300068808068180820302C03032C302008383B
:10574000C800C83808000000203F200000001008F2
:105750000808C8380800203826212020180000003A
:1057600000FE020202000000007F40404000000CEA
:1057700030C000000000000000010638C000000238
:105780000202FE000000004040407F0000000000D8
:1057900004020202040000000000000000000000FB
:1057A00000000000000080808080808080800002F7
:1057B00002040000000000000000000000000000E3
:1057C0008080808000000019242222223F2008F8D7
:1057D000008080000000003F112020110E0000001A
:1057E000008080800000000E1120202011000000A9
:1057F00000808088F800000E112020103F2000005B
:10580000808080800000001F22222222130000805E
:1058100080F0888888180020203F202000000000A9
:10582000808080808000006B94949493600008F8DE
:10583000008080800000203F210000203F20008069
:105840009898000000000020203F20200000000069
:1058500000809898000000C08080807F000008F8D9
:10586000000080808000203F24022D3020000008AE
:1058700008F8000000000020203F20200000808069
:10588000808080808000203F20003F20003F80807B
:10589000008080800000203F210000203F20000089
:1058A000808080800000001F202020201F0080803A
:1058B00000808000000080FFA12020110E00000069
:1058C000008080808000000E112020A0FF8080805A
:1058D00080008080800020203F2120000100000007
:1058E00080808080800000332424242419000080DC
:1058F00080E0808000000000001F202000008080E9
:10590000000000808000001F202020103F208080A9
:1059100080000080808000010E3008060100808039
:105920000080008080800F300C030C300F0000805E
:105930008000808080000020312E0E312000808089
:1059400080000080808080818E70180601000080B9
:105950008080808080000021302C222130000000D7
:105960000000807C020200000000003F4040000078
:105970000000FF00000000000000FF000000000227
:10598000027C800000000040403F00000000000654
:1059900001010202040400000000000000000000F9
:1059A00064656661756C745461736B00CC59000852
:1059B00000000020C800000054350008945A000878
:1059C000C8000020D8210000643500080000000055
:1059D00001000000100000000000000000127A002A
:1059E00000000000000000000000000000000000B7
:1059F00000000000000000000000000000000000A7
:105A00000000000000000000000000000000000096
:105A10000000000000000000000000000000000086
:105A20000000000000000000000000000000000076
:105A30000000000000000000000000000000000066
:105A4000AAAAAAAA000000000000000000000000AE
:105A50000000000000000000000000000000000046
:105A60000000000000000000000000000000000036
:105A70000000000000000000000000000000000026
:105A80000000000000000000000000000000000016
:045A90000000000012
:04000005080000ED02
:00000001FF
